{
  "contractName": "Voting",
  "abi": [
    {
      "constant": true,
      "inputs": [
        {
          "name": "candidateID",
          "type": "uint256"
        }
      ],
      "name": "totalVotes",
      "outputs": [
        {
          "name": "",
          "type": "uint256"
        }
      ],
      "payable": false,
      "stateMutability": "view",
      "type": "function"
    },
    {
      "constant": true,
      "inputs": [
        {
          "name": "candidateID",
          "type": "uint256"
        }
      ],
      "name": "getCandidate",
      "outputs": [
        {
          "name": "",
          "type": "uint256"
        },
        {
          "name": "",
          "type": "bytes32"
        },
        {
          "name": "",
          "type": "bytes32"
        }
      ],
      "payable": false,
      "stateMutability": "view",
      "type": "function"
    },
    {
      "constant": true,
      "inputs": [],
      "name": "getNumOfVoters",
      "outputs": [
        {
          "name": "",
          "type": "uint256"
        }
      ],
      "payable": false,
      "stateMutability": "view",
      "type": "function"
    },
    {
      "constant": false,
      "inputs": [
        {
          "name": "uid",
          "type": "bytes32"
        },
        {
          "name": "candidateID",
          "type": "uint256"
        }
      ],
      "name": "vote",
      "outputs": [
        {
          "name": "voterID",
          "type": "uint256"
        }
      ],
      "payable": false,
      "stateMutability": "nonpayable",
      "type": "function"
    },
    {
      "constant": false,
      "inputs": [
        {
          "name": "name",
          "type": "bytes32"
        },
        {
          "name": "party",
          "type": "bytes32"
        }
      ],
      "name": "addCandidate",
      "outputs": [
        {
          "name": "candidateID",
          "type": "uint256"
        }
      ],
      "payable": false,
      "stateMutability": "nonpayable",
      "type": "function"
    },
    {
      "constant": true,
      "inputs": [],
      "name": "getNumOfCandidates",
      "outputs": [
        {
          "name": "",
          "type": "uint256"
        }
      ],
      "payable": false,
      "stateMutability": "view",
      "type": "function"
    }
  ],
  "bytecode": "0x6060604052341561000f57600080fd5b6103e98061001e6000396000f300606060405260043610610078576000357c0100000000000000000000000000000000000000000000000000000000900463ffffffff16806319e6e1581461007d57806335b8e820146100b457806365fc783c146101095780639ef1204c14610132578063a1adbb2514610176578063e8685ba1146101be575b600080fd5b341561008857600080fd5b61009e60048080359060200190919050506101e7565b6040518082815260200191505060405180910390f35b34156100bf57600080fd5b6100d5600480803590602001909190505061023d565b6040518084815260200183600019166000191681526020018260001916600019168152602001935050505060405180910390f35b341561011457600080fd5b61011c61027e565b6040518082815260200191505060405180910390f35b341561013d57600080fd5b610160600480803560001916906020019091908035906020019091905050610288565b6040518082815260200191505060405180910390f35b341561018157600080fd5b6101a86004808035600019169060200190919080356000191690602001909190505061031d565b6040518082815260200191505060405180910390f35b34156101c957600080fd5b6101d16103b4565b6040518082815260200191505060405180910390f35b6000806000809150600090505b600154811115156102335783600360008381526020019081526020016000206001015414156102265781806001019250505b80806001019150506101f4565b8192505050919050565b600080600083600260008681526020019081526020016000206000015460026000878152602001908152602001600020600101549250925092509193909250565b6000600154905090565b6000600115156002600084815260200190815260200160002060020160009054906101000a900460ff16151514156103175760016000815480929190600101919050559050604080519081016040528084600019168152602001838152506003600083815260200190815260200160002060008201518160000190600019169055602082015181600101559050505b92915050565b600080600081548092919060010191905055905060606040519081016040528084600019168152602001836000191681526020016001151581525060026000838152602001908152602001600020600082015181600001906000191690556020820151816001019060001916905560408201518160020160006101000a81548160ff02191690831515021790555090505092915050565b600080549050905600a165627a7a7230582044e57d0e398845bcff1996a00b9f6988707d7f0a1fe303bf0c6363263635811f0029",
  "source": "pragma solidity ^0.4.18;\n\ncontract Voting {\n\n    struct Voter {\n        bytes32 uid;\n        uint candidateIDVote;\n    }\n\n    struct Candidate {\n        bytes32 name;\n        bytes32 party;\n        bool doesExist;\n    }\n\n    uint numCandidates;\n    uint numVoters;\n    // Think of this as a hash table, with the key as a uint and value of the struct Candidate\n    mapping (uint => Candidate) candidates;\n    mapping (uint => Voter) voters;\n\n    function addCandidate(bytes32 name, bytes32 party) public returns (uint candidateID) {\n        // candidateID is the return variable\n        candidateID = numCandidates++;\n        // Create new Candidate Struct with name and saves it to storage.\n        candidates[candidateID] = Candidate(name,party,true);\n    }\n\n    function getCandidate(uint candidateID) public constant returns (uint,bytes32, bytes32) {\n        return (candidateID,candidates[candidateID].name,candidates[candidateID].party);\n    }\n\n    function vote(bytes32 uid, uint candidateID) public returns (uint voterID) {\n        if (candidates[candidateID].doesExist == true) {\n            voterID = numVoters++;\n            voters[voterID] = Voter(uid,candidateID);\n        }\n    }\n\n    function totalVotes(uint candidateID) view public returns (uint) {\n        uint numOfVotes = 0;\n        for (uint i = 0; i <= numVoters; i++) {\n            if (voters[i].candidateIDVote == candidateID) {\n                numOfVotes++;\n            }\n        }\n        return numOfVotes;\n    }\n\n    function getNumOfCandidates() public constant returns(uint) {\n        return numCandidates;\n    }\n\n    function getNumOfVoters() public constant returns(uint) {\n        return numVoters;\n    }\n}",
  "sourcePath": "/Users/tko/Documents/voting-eth/contracts/Voting.sol",
  "compiler": {
    "name": "solc",
    "version": "0.4.18+commit.9cf6e910.Emscripten.clang"
  },
  "schemaVersion": "1.0.1",
  "updatedAt": "2018-01-14T04:56:04.703Z"
}