{
  "contractName": "Voting",
  "abi": [
    {
      "constant": true,
      "inputs": [
        {
          "name": "candidateID",
          "type": "uint256"
        }
      ],
      "name": "totalVotes",
      "outputs": [
        {
          "name": "",
          "type": "uint256"
        }
      ],
      "payable": false,
      "stateMutability": "view",
      "type": "function"
    },
    {
      "constant": false,
      "inputs": [
        {
          "name": "name",
          "type": "bytes32"
        }
      ],
      "name": "addCandidate",
      "outputs": [
        {
          "name": "candidateID",
          "type": "uint256"
        }
      ],
      "payable": false,
      "stateMutability": "nonpayable",
      "type": "function"
    },
    {
      "constant": false,
      "inputs": [
        {
          "name": "uid",
          "type": "bytes32"
        },
        {
          "name": "candidateID",
          "type": "uint256"
        }
      ],
      "name": "vote",
      "outputs": [
        {
          "name": "voterID",
          "type": "uint256"
        }
      ],
      "payable": false,
      "stateMutability": "nonpayable",
      "type": "function"
    }
  ],
  "bytecode": "0x6060604052341561000f57600080fd5b6102c38061001e6000396000f300606060405260043610610057576000357c0100000000000000000000000000000000000000000000000000000000900463ffffffff16806319e6e1581461005c578063230d6ed8146100935780639ef1204c146100ce575b600080fd5b341561006757600080fd5b61007d6004808035906020019091905050610112565b6040518082815260200191505060405180910390f35b341561009e57600080fd5b6100b8600480803560001916906020019091905050610168565b6040518082815260200191505060405180910390f35b34156100d957600080fd5b6100fc600480803560001916906020019091908035906020019091905050610202565b6040518082815260200191505060405180910390f35b6000806000809150600090505b6001548111151561015e5783600360008381526020019081526020016000206001015414156101515781806001019250505b808060010191505061011f565b8192505050919050565b60008060008154809291906001019190505590506060604051908101604052808360001916815260200160006001026000191681526020016001151581525060026000838152602001908152602001600020600082015181600001906000191690556020820151816001019060001916905560408201518160020160006101000a81548160ff021916908315150217905550905050919050565b6000600115156002600084815260200190815260200160002060020160009054906101000a900460ff16151514156102915760016000815480929190600101919050559050604080519081016040528084600019168152602001838152506003600083815260200190815260200160002060008201518160000190600019169055602082015181600101559050505b929150505600a165627a7a72305820b5a32bf4c59104fe2ffb4b88fedf8908b871a37ccaeb1caea21096b53574d96e0029",
  "source": "pragma solidity ^0.4.18;\n\ncontract Voting {\n\n    struct Voter {\n        bytes32 uid;\n        uint candidateIDVote;\n    }\n\n    struct Candidate {\n        bytes32 name;\n        bytes32 party;\n        bool doesExist;\n    }\n\n    uint numCandidates;\n    uint numVoters;\n    // Think of this as a hash table, with the key as a uint and value of the struct Candidate\n    mapping (uint => Candidate) candidates;\n    mapping (uint => Voter) voters;\n\n    function addCandidate(bytes32 name) public returns (uint candidateID) {\n        // candidateID is the return variable\n        candidateID = numCandidates++;\n        // Create new Candidate Struct with name and saves it to storage.\n        candidates[candidateID] = Candidate(name,0,true);\n    }\n\n    function vote(bytes32 uid, uint candidateID) public returns (uint voterID){\n        if (candidates[candidateID].doesExist == true){\n            voterID = numVoters++;\n            voters[voterID] = Voter(uid,candidateID);\n        }\n    }\n\n    function totalVotes(uint candidateID) view public returns (uint) {\n        uint numOfVotes = 0;\n        for (uint i = 0; i <= numVoters; i++) {\n            if (voters[i].candidateIDVote == candidateID) {\n                numOfVotes++;\n            }\n        }\n        return numOfVotes;\n    }\n}",
  "sourcePath": "/Users/tko/Documents/voting-eth/contracts/Voting.sol",
  "compiler": {
    "name": "solc",
    "version": "0.4.18+commit.9cf6e910.Emscripten.clang"
  },
  "schemaVersion": "1.0.1",
  "updatedAt": "2018-01-13T22:15:14.513Z"
}